:020000040001F9
:10C00000F832002035C101004FC1010051C10100CB
:10C010000000000000000000000000000000000020
:10C0200000000000000000000000000053C10100FB
:10C03000000000000000000055C1010057C10100D0
:10C0400059C1010059C1010085C4010059C1010055
:10C0500059C101000000000051C2010059C1010096
:10C0600059C1010059C1010059C1010059C1010064
:10C0700059C1010059C1010059C1010059C1010054
:10C0800059C101009DC3010059C1010059C10100FE
:10C09000BDC3010059C10100C5C3010059C1010060
:10C0A00059C1010059C1010000000000000000005A
:10C0B0000000000000000000000000000000000080
:10C0C0000348854600F0B2F800480047E1D001007F
:10C0D000F8320020401E00BF00BF00BF00BF00BFFD
:10C0E00000BF00BF00BF00BF00BF00BF00BFF1D155
:10C0F00070470000401E00BF00BF00BF00BF00BF70
:10C1000000BF00BF00BF00BF00BF00BF00BFF1D134
:10C1100070470000401E00BF00BF00BF00BF00BF4F
:10C1200000BF00BF00BF00BF00BF00BF00BFF1D114
:10C13000704700000321094802680A43026008486A
:10C1400002680A4302600748804707480047FEE745
:10C15000FEE7FEE7FEE7FEE7FEE7000024050040FD
:10C1600054050040E5C30100C1C0010030B50B46D5
:10C17000014600202022012409E00D46D5409D42C1
:10C1800005D31D469540491B254695404019154647
:10C19000521E002DF1DC30BD70B50024254600286C
:10C1A00001DA01244042002901DA01254942FFF762
:10C1B000DDFFAC4200D04042002C00D0494270BDAF
:10C1C0000549064A08685043054A80180860400837
:10C1D0007047014908607047642800206D4EC641D1
:10C1E0003930000003460B439B0703D009E008C920
:10C1F000121F08C0042AFAD203E00B780370401C17
:10C20000491C521EF9D27047D2B201E00270401CA4
:10C21000491EFBD270470022F6E710B513460A46C6
:10C2200004461946FFF7F0FF204610BD064C0125D5
:10C23000064E05E0E36807CC2B430C3C98471034CE
:10C24000B442F7D3FFF740FFF0DD010010DE01003C
:10C25000F8B50024FF25013501262746009428461D
:10C2600001F088F9002808D034484068304204D0F2
:10C27000334800212818344301602D1D76007F1CAF
:10C28000ADB2042FEBD3FF207D3001F073F900280D
:10C2900007D02C4800210160400704432A48006968
:10C2A00000902A4F200712D00126002526420AD0EE
:10C2B0002748AA00111808690969C004C00E89033B
:10C2C000BA58890F904776006D1C042DEED3002CD0
:10C2D00030DA00241D4E0021301940304156491CEF
:10C2E00025D00778BD06AD0E284600F0C5FB8000BE
:10C2F0003658002E1BD0BF090121A940154AA800BD
:10C3000080180068009A8003800F114202D0022832
:10C3100002D00CE003280AD1032F05D102280AD04D
:10C320000221284601F016F939462846B047641C18
:10C33000042CCFD3F8BD0321F3E7000000630040D5
:10C34000006000407C61004000050050902A002001
:10C3500000650040000700508307FF22DB0E9A4073
:10C360008907090E994000280BDA0007000F0838EA
:10C37000830808489B001818C36993430B43C361A3
:10C380007047830804489B001B18186890430843B3
:10C390001860704700ED00E000E400E010B50649C9
:10C3A0000020086048608860C86003494039086020
:10C3B000486001F075FB10BD4011014010B501F05F
:10C3C00005FB10BD10B506484068002805D0804721
:10C3D000002801D000F014FA10BD00F0A1FC10BD3F
:10C3E0005028002010B500F0D7FC002805D01F49C8
:10C3F0001D484860C8131E4988611E48018CC9B297
:10C4000001290BD1828C120708D1028D1206120F5E
:10C41000042A03D1828D1206120F0AD0012921D1DC
:10C42000818C09071ED1018D0906090F0A2904D044
:10C4300007E0114A01219160F5E7828D1206120F83
:10C4400005D00D290ED1808D0006000F0AD10B48B2
:10C450000168012904D00A49016001680129FCD161
:10C46000C021416110BD0000DFFF07C00005004092
:10C47000006C0040C00F00F00006004000EC0640D9
:10C480007593000010B501F071FB10BD30B4744617
:10C49000641E2578641CAB4200D21D46635D5B00C0
:10C4A000E31830BC184702E008C8121F08C1002A70
:10C4B000FAD170477047002001E001C1121F002A25
:10C4C000FBD17047F7B584B0002516880746158064
:10C4D000406B1446002813D003780598032E51D3DF
:10C4E0000221017021881122491C89B22180425405
:10C4F0002188491C89B2218043542088401C208017
:10C50000386B00281DD00546208805990246123256
:10C51000B24237D811220A5420881022401C80B21F
:10C5200020800A542088401C20800F202A5C238809
:10C53000401ECA54228840B2521C22800028F5DADC
:10C540000025384620300290807B002806D03346F4
:10C550002246059900F0AEFC050014D10298407BFC
:10C56000002806D032462146059800F0F9F905006A
:10C5700009D1B878002823D0059886462088001D68
:10C58000B04202D90C2007B0F0BD684679DF002820
:10C59000F9D1218803207246505420881921401C6B
:10C5A00080B22080115420887146401C80B22080C7
:10C5B00041186846008801F06DFB218840182080F2
:10C5C000F878002817D0218803230A46FB56C91C97
:10C5D0000598B142D6D80221815421880122491CF4
:10C5E00089B2218042542188491C89B22180435458
:10C5F0002088401C20807868002817D021880023DC
:10C60000C3560A46C91C0598B142BBD802218154C1
:10C6100021880A22491C89B2218042542188491C60
:10C6200089B2218043542088401C2080388900280A
:10C630000AD0009438460196062202210830059B54
:10C6400001F02DFB05009ED1388A00280AD0009405
:10C6500038460196072203211030059B01F01FFB8D
:10C66000050090D1388B00280AD0009438460196F6
:10C67000152214211830059B01F011FB050082D111
:10C68000386A002806D033462246059900F050FA51
:10C690000500D8D1786A002806D03346224605998D
:10C6A00000F062FD0500CED10298007B002807D083
:10C6B000334622463846059901F026F80500C2D1D6
:10C6C0003878002807D0334622463846059900F0CE
:10C6D0007FFD0500B7D1284655E7000030B51A4A5E
:10C6E00095B01268139204906846818117490180C1
:10C6F00004990398029101900625382105A8FFF7B7
:10C700008AFD002468460475C5750121818413A83B
:10C710000A9068460F9010A80170214605A800F005
:10C72000EBF8002801D000F06BF818210848FFF75B
:10C7300072FD07480321017044600472A021018248
:10C74000448215B030BD0000ECDD0100AAFE0000FF
:10C75000782A002010B5054873DF041E04D000F0CD
:10C760004FF8204600F04CF810BD0000782A002059
:10C77000F0B585B0142216496846FFF733FD164C14
:10C780001448A0606E46154F1DE000250CE0FFF731
:10C7900017FD0521FFF700FD8800315C012088406E
:10C7A0000C490840E0606D1CFFF70AFD0521FFF70A
:10C7B000F3FCA942EBDC322000F0A6FB0848A060A5
:10C7C000322000F0A1FB38680028DED005B0F0BDB3
:10C7D000D8DD01004F0C000F000500502828002074
:10C7E0000008000FBFF34F8F04490348C860BFF330
:10C7F0004F8F00BFFDE700000400FA0500ED00E0E8
:10C800000EB50021029000916A4601910148FFF7A0
:10C81000E9FF000001400000FFB59007002581B04E
:10C8200014460E46002832D11B4F002C31D000F0A8
:10C8300017FF049878610320387033461821224688
:10C8400000204B43BC601834C10089180D704D7036
:10C850008E704C601C19401C0328F5DBFD607D7058
:10C8600001240E48BD702405046003211420FFF745
:10C8700073FD0B4804600B4C0198A060032111204C
:10C88000FFF76AFD60683861002005B0F0BD072041
:10C89000FBE7BD60FBE700003028002080E200E0FD
:10C8A00000E100E000150140F8B50F481821416093
:10C8B0000E4C002525600126066025600C4F3E6069
:10C8C00021680029FCD08068FF21E1221201504339
:10C8D000FFF74CFC80B225607E6064214843054927
:10C8E000FFF744FCC0B2F8BD007500400071004085
:10C8F00000700040E40C0000F0B50C4693B01F211E
:10C900006A461180072600279180002809D0C17847
:10C9100049070DD502A9FFF7D5FD002809D102ADC1
:10C9200001E000251780002C0ED0E078002802D00E
:10C93000304613B0F0BD01AA0AA92046FFF7C2FD98
:10C940000028F6D10AAA02E06846002287806846DD
:10C950008088C3B268460088C1B2284672DFE8E723
:10C960007CB5054608880C460930904201D90C2058
:10C970007CBD684671DF0028FAD121880820685400
:10C9800020881B21401C80B220802954208800A9C7
:10C99000401C80B22080401906220131FFF722FCA2
:10C9A00020886946801D80B220800978002900D047
:10C9B000012129542088401C208000207CBD0000DB
:10C9C00000B585B0002348221049112000F060FF17
:10C9D000002801D0FFF714FF00216A46084600F046
:10C9E0003FFF002801D0FFF70BFF094800F084FE4D
:10C9F000002801D0FFF704FF684600F027FF002859
:10CA000001D0FFF7FDFE05B000BD0000302A002078
:10CA1000D81600200022D243830004490428CA50BB
:10CA200002D308182030027770470000902A0020B7
:10CA3000F0B50025ED43002A02D00023042601E0D2
:10CA4000042308260B4C04E09F00E7597F1C04D008
:10CA50005B1CB342F8D32846F0BD26185DB22036E1
:10CA600035709E00A151002AF5D1E11820310877D8
:10CA7000F1E70000902A00200249091820200856FA
:10CA800070470000902A0020F8B52348C1680029AB
:10CA90003ED00E6821494C680769C078E11B0D0241
:10CAA0002D0AED1C002814D101201D4A00045060FD
:10CAB0001B4A403A50601B49400008601A49086010
:10CAC0001A49012008602F20FFF724FB124901209A
:10CAD000C870B54200D23546E81900020F4B000A73
:10CAE000403318600D4A5168001B091B0902090AEE
:10CAF0000002000AC91C814209D9506818602F2021
:10CB0000FFF708FB01200749400480390860F8BDA1
:10CB100000F0A6FDF8BD00003028002000150140FF
:10CB20004013014080E200E000E100E0001001401D
:10CB3000F8B50646108814468446801D0D46984276
:10CB400001D90C20F8BD32880720062AFAD319270C
:10CB5000FF01184BBA4201D99A42F3D171880629D4
:10CB6000F0D3B94201D99942ECD19A4203D099420B
:10CB700001D08A42E6D80521604629542088122136
:10CB8000401C80B2208029542088401C80B2208024
:10CB90004119308801F07EF82188401880B2208049
:10CBA0004119708801F076F8218840182080002013
:10CBB000F8BD0000FFFF000010B50E4900234A78C1
:10CBC0008C78A24212D0521CD2B24A70022A00D1F2
:10CBD0004B704A78074B920018339A5802600869E4
:10CBE00010180002000A0861012010BD0360002037
:10CBF00010BD000030280020F0B5042502270126D2
:10CC00000724204A0300FFF741FC081905080B0E12
:10CC1000111417199460D66011E09460D5600EE08D
:10CC20009460D7600BE0D460966008E0D4609760B1
:10CC300005E0D460956002E0D46000E094600824D0
:10CC40008920E6014025C0000B00FFF71FFC0819F2
:10CC500005080B0E111417199060D460F0BD906098
:10CC6000D660F0BD9060D560F0BDD0609460F0BD3E
:10CC7000D0609560F0BDD0609660F0BDD060F0BD32
:10CC80009060F0BD00050050F0B585B00446142258
:10CC90001D496846FFF7A6FA0F2000F0E9FA204682
:10CCA00000F0C6FB00282DD1184801270760052099
:10CCB00000F0DEFA164C6068401C6060052801D167
:10CCC00000206060144D1348A8601448E860642098
:10CCD00000F0CEFA114F0026AF60642000F0C8FAD1
:10CCE000606881006846415C01208840094908402D
:10CCF000E860642000F0BCFA761C032EECDBAF6029
:10CD00006068206005B0F0BD84DD010028280020A7
:10CD1000002800204F0C000F000500500008000FF5
:10CD2000F8B51C4C2078002833D02069002807D0A3
:10CD30000026E068002805D00025002E04D011E070
:10CD40000126F6E70125F8E7684652DF052804D0FA
:10CD5000002804D0FFF754FD04E0012602E0216919
:10CD600000988847002D10D1608869460880A06827
:10CD700061DF052804D0002804D0FFF741FD04E05E
:10CD8000012502E0E168A0688847002EDCD0002D74
:10CD9000D3D0F8BD502800201048018CC9B2012919
:10CDA00017D1818C090714D1018D09060A0F03D10F
:10CDB000828D1206120F0ED0090F012903D1828D28
:10CDC0001206120F07D0032903D1808D0006000F31
:10CDD00001D000207047012070470000C00F00F014
:10CDE000F0B585B014222F496846FFF7FBF90027FC
:10CDF0002D4E6D460124B800295C204688402B4901
:10CE00000840F060642000F07FF82948016800299C
:10CE100046D17F1C052FEEDB0027B800295C204699
:10CE20008840224E204930408860642000F06CF831
:10CE30001F480068002833D17F1C052FEDDBFF2041
:10CE40002D3000F061F81A480168002928D1042724
:10CE5000B800295C2046884013493040C8606420EF
:10CE600000F052F812480168002919D17F1EEFD551
:10CE70000D4D04270646B9006846415C20468840AF
:10CE80000A490840A860642000F03EF83068002895
:10CE900006D17F1EEFD5FF202D3000F035F8306829
:10CEA00005B0F0BDC4DD0100000500504F0C000FBF
:10CEB0002828002030B51588EC1C9C4201D90C2094
:10CEC00030BD02244C5513881C255B1C9BB213807B
:10CED000CD5413885B1C9BB21380012807D0022815
:10CEE00007D0032807D0042807D0072030BD002032
:10CEF00004E0012002E0CC5401E00320C854108873
:10CF0000401C1080002030BD70B505460024064E40
:10CF100006E03068002805D1012000F0A9F9641C62
:10CF2000AC42F6DB70BD00002828002070B5054635
:10CF30000024064E06E03068002805D10120FFF7E6
:10CF4000C9F8641CAC42F6DB70BD00002828002044
:10CF5000F8B52C49C8680A690C780F798968864643
:10CF6000944600913EE00099E20055182A7836E098
:10CF7000182353436968521CC918AB78D2B2934244
:10CF800000D100220B78022B02D0032B27D123E003
:10CF90004E680346014603E0B14204D00B46C9691E
:10CFA00000291CD0F8E7002919D08B4208D1C069AC
:10CFB000002805D1144F0126BE600026B446012783
:10CFC0000E68C969D961002909D00B689B190B60EB
:10CFD00005E00174C06900E000210028F9D16978FA
:10CFE0009142C5D12146641EE4B20029BBD1054956
:10CFF00062460A61C8600F71704501D00120F8BD1A
:10D000000020F8BD3028002000100140F8B504468B
:10D0100031480026C168009107784EE02E48F9009B
:10D0200080680D1843E0002C02D02046E4691FE020
:10D030002878182141436A68401CC0B251182870F2
:10D04000AA78904200D12E700A784868012A30D11F
:10D05000027C002A2DD18A684260CA6882600A690F
:10D06000C260496981611C490979002900D0466084
:10D07000194943680A699C46991A0902174B090A1B
:10D08000994202D28268891807E06146511A090262
:10D090008268090A8A4202D9511A016000E00660DA
:10D0A0004660012186600174C66100F0D9FC002C45
:10D0B000B9D1287869788842BAD138467F1EFFB244
:10D0C0000028ABD10448C1680098814201D00120FA
:10D0D000F8BD0020F8BD000030280020FFFF7F00D1
:10D0E00000238EB01C4A05211846FFF795FB002847
:10D0F00001D0FFF785FBFFF763FC10211748FFF70E
:10D10000EDFA2C22164901A8FFF76CF800F09AF905
:10D11000134D01AE1C3D286800240C90A00030582F
:10D120000CA900F0B9F9641C0B2CF7DB68680090BF
:10D130000320694648700B4A092000F027F90121B5
:10D14000092000F0D3F8FFF705FB044C083C2068E9
:10D1500000F040FAFBE700006828002008280020C3
:10D1600098DD010089CC010070B5144682880E4616
:10D1700005462088111D4118921C994201D8FE2AAB
:10D1800001D90C2070BD521C32542088FF21401C54
:10D1900080B2208031542088401C80B220808119C8
:10D1A000288800F077FD2188401880B22080AA8866
:10D1B000002A09D0A968002908D08019FFF712F8C1
:10D1C0002088A98840182080002070BD072070BDED
:10D1D000F8B50F46017814460546012902D1687852
:10D1E000002806D02088821C9A422DD8012902D01E
:10D1F00006E00720F8BD69784118891C994223D8B8
:10D20000181A801E86B2684606802188B81C081845
:10D2100069467DDF0028EDD12878022805D16946CE
:10D220000988B14201D809210AE00821012805D165
:10D230006878B04202D86A46108001E068460680ED
:10D2400068460088FE2801D90C20F8BD2288401CC1
:10D25000B8542088401C80B2208039542088694608
:10D26000401C20800988401820800020F8BD000064
:10D2700031B5054C04E0401E00902046FEF73AFF11
:10D2800000980028F7D138BDE70300008207D30ECD
:10D29000FF229A408907090E10B5994000280BDA41
:10D2A00003071B0F083B9C080C4BA400E318DC6928
:10D2B00094430C43DC6107E08408094BA400E418A4
:10D2C000236893430B432360C106C90E01208840A5
:10D2D000044908600449086010BD000000ED00E04A
:10D2E00000E400E080E200E000E100E0F3B581B09E
:10D2F0000F46019800F056F9012400281E4E0198AF
:10D3000017D0FFF7B9FB80192030007F8009032870
:10D3100002D0012806D007E01848006901998C4026
:10D32000204201D1022100E00321019800F012F90E
:10D33000FEBD00F043F90028FAD00198FFF79CFBEE
:10D3400005468100C81D0E4AF93089180A6980B265
:10D3500022430A610B49401800210160002FE7D0E9
:10D360000198FFF789FB800030580028E0D006487C
:10D37000AC404460FEBD0000902A00200005005033
:10D38000006500400060004000630040FEB50446B8
:10D3900023480E460019202141560027C81713467E
:10D3A000401C01D0082738E0F27819462046FFF7E4
:10D3B0003FFB0546401C2FD0B078002807D0194805
:10D3C000A1000918086802229043086007E00021C4
:10D3D0007378204600910A46019100F0A9F8F07890
:10D3E000002810D01048AA001018317802690F4B9D
:10D3F0001A400261E206D20C8907890B0A430169CF
:10D400000A43026109E00648327840192030017F62
:10D4100092011143017700E004273846FEBD000069
:10D42000902A00200007005000650040FFE0FCFF4C
:10D4300003490969C140C807C00F00D001207047E7
:10D440000005005070B5124D2879002801D0082041
:10D4500070BD0F4900204039421E0B182033401C7C
:10D46000C0B21A702028F8D300242046FFF7D2FA61
:10D47000641CE4B2082CF8D303210620FFF706FF52
:10D4800001200449C007486001202871002070BDB8
:10D49000D02A002000630040FEB5044620480D4617
:10D4A0000019002620308157491C01D0082633E09E
:10D4B000A97800291DD0012200212046FFF7B8FAE3
:10D4C000411C14D0830017482A781818697803691A
:10D4D000154F3B4003610369E706FF0C9207920B6F
:10D4E000C907C90A3B430A431343036104E0042606
:10D4F00012E00121C94301706A780120A0400B4964
:10D50000012A0BD0C860002100910B460122019135
:10D510002046114600F00CF83046FEBD8860F2E768
:10D52000902A002000650040FFE0ECFF000500505D
:10D5300030B552000A439900039C0A432102049D1E
:10D540000A4329040A43024980004018026030BDA2
:10D5500000070050820006481018026803231B04CD
:10D560009A430260026809040A430260704700009F
:10D5700000070050034940180068012800D000202F
:10D5800070470000006000404058002800D0012093
:10D5900070470322120280184068084000D0012022
:10D5A000704700000449081820214156042901DB76
:10D5B0000120704700207047902A00200449081875
:10D5C00020214156042901D20120704700207047D4
:10D5D000902A002010B50300FEF758FF0504070C41
:10D5E0000F141C00FFF7FCFB01E000F023F81021F2
:10D5F0000C480CE000F064F9F9E7FFF755F900F08A
:10D60000CBF8F4E7FFF7B4F8064810211030FFF725
:10D6100065F802E005490448886005490020086073
:10D6200010BD0000082800204F0C000F000500501E
:10D630002828002010B500210120FFF7DDFAFA208C
:10D64000FFF762FC054C2068002806D10121FFF796
:10D65000D3FAFA20FFF758FC206810BD28280020D4
:10D6600070B501240B49600408600B4940108860C4
:10D67000094940398860094D6C602F20FEF74AFD4A
:10D68000AC60074D00242F202C61FEF743FDEC70A9
:10D6900070BD000080E100E0401301400010014037
:10D6A0003028002030B50A48FF21C57D0022094CF2
:10D6B0000931094B002D625007D09969437EC26839
:10D6C000D154417E491C417630BD986930BD00007F
:10D6D000D82A002000200040002500401FB501236B
:10D6E0006A46137010720348019106C86846904755
:10D6F0001FBD0000D82A002008B502490020009173
:10D7000008BD000000280020FFB50746806A81B0F0
:10D71000144600283DD0002538462030009033E0E4
:10D720000C20B96A68430E18B088801CFE2802D904
:10D730000C2005B0F0BD22880299401C8854208836
:10D740001622401C80B2208002990A542088401C76
:10D7500080B2208002994118308800F09BFA21881D
:10D76000401880B22080B288002A0AD0B16800290F
:10D770000FD0029BC018FEF735FD2088B1884018F5
:10D7800020806D1C0098EDB2007BA842C8D8002014
:10D79000CFE70720CDE70000F8B52A4D284FAF604E
:10D7A00018240A2803D901210906E9600024142855
:10D7B00000D919241E2803D901214906E960002453
:10D7C000282800D91A24322803D901218906E960C2
:10D7D00000243C2800D91B24462803D90121C9066E
:10D7E000E9600024502800D90B24174E5A281ED96E
:10D7F0000120C002E86030680024002813D0F8BD82
:10D80000002C10DD0098E860FA20FFF77DFB3068FF
:10D810000028F4D10098A860FA20FFF775FB306863
:10D82000002808D0F8BDFF20F530FFF76DFB012080
:10D83000A0403840009030680028E1D0F8BD0000DA
:10D840004F0C000F00050050282800201CB503498C
:10D8500001910091694660DF1CBD00000028002096
:10D8600070B50E460546144614211046FEF7D3FC4B
:10D870000120002120802161217326726572002D14
:10D8800000D0A072002070BD10B5FEF7ABFF10BD38
:10D8900070B5002901D08C0701D0072070BD064C5F
:10D8A0000125A16062800549636010DF0028F5D181
:10D8B000257016202EDF70BD5028002089D8010069
:10D8C00070B50026404D0124A40202210846FFF74E
:10D8D00093F93046FFF72AFB00210846FFF78CF941
:10D8E000A01BFFF723FB286800286BD1761CA642FB
:10D8F000EBDB002600210846FFF77EF93046FFF7F4
:10D9000015FB02210846FFF777F9A01BFFF70EFB76
:10D910002868002856D1761CA642EBDB00260121A0
:10D920000846FFF769F93046FFF700FB002108467B
:10D93000FFF762F9A01BFFF7F9FA2868002841D128
:10D94000761CA642EBDB002600210846FFF754F9BF
:10D950003046FFF7EBFA01210846FFF74DF9A01B0F
:10D96000FFF7E4FA286800282CD1761CA642EBDBEE
:10D97000002603210846FFF73FF93046FFF7D6FAA5
:10D9800000210846FFF738F9A01BFFF7CFFA2868F7
:10D99000002817D1761CA642EBDB002600210846A2
:10D9A000FFF72AF93046FFF7C1FA03210846FFF7CF
:10D9B00023F9A01BFFF7BAFA2868002802D1761CC9
:10D9C000A642EBDB70BD000028280020FEB51F4CEE
:10D9D00000252769E06802906846FFF7EDF801909E
:10D9E000FFF7B6FA06460198002822D000230098D7
:10D9F000E16817E00E680A46864202D9301A0860CC
:10DA000012E0801BF31800261660D668D169B44670
:10DA1000002E07D0FE183602360A5660664696601B
:10DA2000D56115460029E5D12846E160FFF7EEFAF9
:10DA300006E02846FFF7EAFA002801D1002E02D0BE
:10DA40000298FFF721F800202071FEBD3028002049
:10DA500001200249000508607047000000E200E074
:10DA600010B50E4BD968002906D002680C68A24296
:10DA700004D8A21A0A60C161D86010BD0B4604E048
:10DA80000B46C969121B002904D00C689442F7D3D5
:10DA9000A41A0C600260C161D86110BD302800205A
:10DAA000F8B51D4DEC68002C34D01C4800274068A8
:10DAB0002969401A0602360A2068B04218D8361A78
:10DAC000C7192246107CE46900280FD0002010748A
:10DAD0006B69002B07D0916950699847002805D0E1
:10DAE000FEF78EFE02E0516990698847002CE3D171
:10DAF0006978A878814206D1401CC0B2A87002287B
:10DB000001D10020A87004490006800D18310F5083
:10DB1000FFF79EFFF8BD00003028002000150140EF
:10DB2000FF2107481D31002242500648828A816841
:10DB3000895C828A521C82820348C161704700005E
:10DB400000200040D82A0020002500401FB50021F9
:10DB50006A4611701072044882680192817506C885
:10DB6000684690471FBD0000D82A0020F0B5454DFB
:10DB7000012185B049022846FFF70BFD0127002649
:10DB8000414C002824D0FF2125312846FFF7FCFC1A
:10DB900000281DD0FF2025302E5081203B498000D9
:10DBA0008860A07E002800D16F6002216846017065
:10DBB0003749086808600390E17D68460172E068B3
:10DBC0000190E675267606CC6846083C90472BE027
:10DBD00004212846FFF7DDFC002825D0FF2109316C
:10DBE0002846FFF7D1FC00281ED0FFF75BFDE07D43
:10DBF000617E884218D1207E002808D0627EE168CC
:10DC0000E0752069E0602676667610460AE0A07E20
:10DC1000002800D16F6081201C4980008860E67573
:10DC2000607EE168FFF75AFDFF211D312846FFF7AE
:10DC3000ABFC00280DD0A18AA07D814202D2FFF763
:10DC40006FFF06E0FF211D316E50002801D0FFF765
:10DC50007DFFFF2145312846FFF796FC00280ED0B6
:10DC6000FF2045302E50A07E002800D02F60E07DA0
:10DC7000002804D0E675607EE168FFF72FFD05B04F
:10DC8000F0BD000000200040D82A00200023004002
:10DC9000802400400870000A487002207047FFB5D9
:10DCA00083B016460C9D0D9C1F46022200950194E0
:10DCB000039800F00CF8002807D13B4610223146AB
:10DCC00000950194039800F002F807B0F0BDFFB58D
:10DCD00083B0074600200C9C8646268805463AE01D
:10DCE0007868A90042181188684681805188C180EF
:10DCF0000022694601A865DF002839D1684601780D
:10DD00000598814226D17046002801D0002200E00B
:10DD100002222088891842180D998A4227D8714614
:10DD200000290AD1401C80B22080069A049911541F
:10DD30002088401C208001208646218806980A18E9
:10DD4000694601A865DF002812D169462088097854
:10DD5000401820806D1C3888A842C1DC704600281D
:10DD60000AD02088801B401E80B2FF2802D90C20D8
:10DD700007B0F0BD069988550020F9E700010000C2
:10DD8000020000010B000000180000001900000054
:10DD90001A0000001B00000000000000010000004D
:10DDA0000200000003000000060000000A0000005E
:10DDB0000B00000018000000190000001A0000000D
:10DDC0001B0000000B0000001800000019000000FC
:10DDD0001A0000001B0000000B00000018000000EB
:10DDE000190000001A0000001B000000AAFE01003C
:10DDF00010DE01000028002068000000A6C4010019
:10DE000078DE010068280020900A0000B6C40100F6
:10DE1000000000000000000010EE03357A3804779F
:10DE20006F726D5F7A6C676710EE03676F6F2E67B6
:10DE30006C2F43336F4F6337000000000024F40061
:10DE400000000000000000000000000000000000D2
:10DE500000000000000000000000000000000000C2
:10DE600000000000000000000000000000000000B2
:08DE70000000000000000000AA
:040000050001C0C175
:00000001FF
