:020000040001F9
:10C000008033002015C101002FC1010031C10100A2
:10C010000000000000000000000000000000000020
:10C0200000000000000000000000000033C101001B
:10C03000000000000000000035C1010037C1010010
:10C0400039C1010039C1010019C4010039C1010021
:10C0500039C1010000000000E5C1010039C1010043
:10C0600039C1010039C1010039C1010039C10100E4
:10C0700039C1010039C1010039C1010039C10100D4
:10C0800039C1010031C3010039C1010039C10100CA
:10C0900051C3010039C1010059C3010039C1010078
:10C0A00039C1010039C1010000000000000000009A
:10C0B0000000000000000000000000000000000080
:10C0C0000348854600F07CF800480047C9D20100CB
:10C0D00080330020401E00BF00BF00BF00BF00BF74
:10C0E00000BF00BF00BF00BF00BF00BF00BFF1D155
:10C0F00070470000401E00BF00BF00BF00BF00BF70
:10C1000000BF00BF00BF00BF00BF00BF00BFF1D134
:10C11000704700000321094802680A43026008488A
:10C1200002680A4302600748804707480047FEE765
:10C13000FEE7FEE7FEE7FEE7FEE70000240500401D
:10C140005405004079C30100C1C0010030B50B4661
:10C15000014600202022012409E00D46D5409D42E1
:10C1600005D31D469540491B254695404019154667
:10C17000521E002DF1DC30BD03460B439B0703D05C
:10C1800009E008C9121F08C0042AFAD203E00B789C
:10C190000370401C491C521EF9D27047D2B201E014
:10C1A0000270401C491EFBD270470022F6E710B512
:10C1B00013460A4604461946FFF7F0FF204610BD15
:10C1C000064C0125064E05E0E36807CC2B430C3CEA
:10C1D00098471034B442F7D3FFF776FF40DE0100F2
:10C1E00060DE0100F8B50024FF2501350126274651
:10C1F0000094284601F094FA002808D0344840689A
:10C20000304204D0334800212818344301602D1DEA
:10C2100076007F1CADB2042FEBD3FF207D3001F000
:10C220007FFA002807D02C48002101604007044312
:10C230002A48006900902A4F200712D001260025C5
:10C2400026420AD02748AA00111808690969C004C3
:10C25000C00E8903BA58890F904776006D1C042DD3
:10C26000EED3002C30DA00241D4E0021301940306E
:10C270004156491C25D00778BD06AD0E284600F072
:10C28000ADFD80003658002E1BD0BF090121A9400A
:10C29000154AA80080180068009A8003800F114298
:10C2A00002D0022802D00CE003280AD1032F05D1C6
:10C2B00002280AD00221284601F022FA39462846EF
:10C2C000B047641C042CCFD3F8BD0321F3E7000072
:10C2D00000630040006000407C61004000050050A9
:10C2E000FC2A002000650040000700508307FF2261
:10C2F000DB0E9A408907090E994000280BDA0007E7
:10C30000000F0838830808489B001818C369934336
:10C310000B43C3617047830804489B001B181868CF
:10C32000904308431860704700ED00E000E400E02F
:10C3300010B506490020086048608860C86003495D
:10C3400040390860486001F0A7FB10BD4011014072
:10C3500010B501F037FB10BD10B506484068002845
:10C3600005D08047002801D000F028FA10BD00F069
:10C370004DFE10BD6028002010B500F083FE00289F
:10C3800005D01F491D484860C8131E4988611E48D2
:10C39000018CC9B201290BD1828C120708D1028D00
:10C3A0001206120F042A03D1828D1206120F0AD030
:10C3B000012921D1818C09071ED1018D0906090FA0
:10C3C0000A2904D007E0114A01219160F5E7828D26
:10C3D0001206120F05D00D290ED1808D0006000F18
:10C3E0000AD10B480168012904D00A49016001689B
:10C3F0000129FCD1C021416110BD0000DFFF07C051
:10C4000000050040006C0040C00F00F00006004036
:10C4100000EC06407593000010B501F0A3FB10BDC1
:10C4200030B47446641E2578641CAB4200D21D46AD
:10C43000635D5B00E31830BC184702E008C8121FB8
:10C4400008C1002AFAD170477047002001E001C1FD
:10C45000121F002AFBD17047F7B584B0002516885B
:10C4600007461580406B1446002813D003780598C2
:10C47000032E51D30221017021881122491C89B257
:10C48000218042542188491C89B22180435420884C
:10C49000401C2080386B00281DD005462088059957
:10C4A00002461232B24237D811220A542088102292
:10C4B000401C80B220800A542088401C20800F201D
:10C4C0002A5C2388401ECA54228840B2521C228013
:10C4D0000028F5DA0025384620300290807B0028BD
:10C4E00006D033462246059900F0F0FD050014D130
:10C4F0000298407B002806D032462146059800F07D
:10C5000063FA050009D1B878002823D0059886463B
:10C510002088001DB04202D90C2007B0F0BD68464B
:10C5200079DF0028F9D121880320724650542088F1
:10C530001921401C80B22080115420887146401C73
:10C5400080B2208041186846008801F09FFB218856
:10C5500040182080F878002817D0218803230A4645
:10C56000FB56C91C0598B142D6D8022181542188B6
:10C570000122491C89B2218042542188491C89B278
:10C58000218043542088401C20807868002817D0E0
:10C5900021880023C3560A46C91C0598B142BBD85E
:10C5A0000221815421880A22491C89B221804254E7
:10C5B0002188491C89B2218043542088401C208056
:10C5C000388900280AD000943846019606220221B4
:10C5D0000830059B01F09DFB05009ED1388A00289C
:10C5E0000AD0009438460196072203211030059B9B
:10C5F00001F08FFB050090D1388B00280AD0009401
:10C6000038460196152214211830059B01F081FB54
:10C61000050082D1386A002806D0334622460599A3
:10C6200000F038FC0500D8D1786A002806D03346DF
:10C630002246059900F0B2FE0500CED10298007B9B
:10C64000002807D0334622463846059901F038F9CC
:10C650000500C2D13878002807D033462246384634
:10C66000059900F0CFFE0500B7D1284655E7000038
:10C6700030B51B4895B0006813901A4804901021FB
:10C6800068468181184901800499039802910190BC
:10C690000625382105A8FFF788FD002468460475A3
:10C6A000C5750121818413A80A9068460F9010A8CF
:10C6B0000170214605A800F053F9002801D000F0D0
:10C6C0007DF818210948FFF770FD08480321017023
:10C6D00044600472A0210182448215B030BD000084
:10C6E000F0DD010000280020AAFE0000842A0020BE
:10C6F0000448426804210B46934383600A40C260A9
:10C70000704700000005005070B50024064D06E09B
:10C710006968E000085C012100F002FF641C2878D1
:10C720008442F5D3002070BD2C280020F8B51546B2
:10C730000C460646052A01D20720F8BD00F0C6FFC8
:10C74000002803D100F098FF0028F6D110490020FE
:10C750004E600C70C8608D6008610E4D0DE0E00009
:10C7600069688019009181786A46517000780A4A98
:10C77000694600F025FF0028DFD12046641EE4B2A0
:10C780000028ECD1054A0021024800F023F8F8BD4A
:10C790002C28002038DE0100BDCF01001DCF010094
:10C7A000BFF34F8F04490348C860BFF34F8F00BFEA
:10C7B000FDE700000400FA0500ED00E00EB50021E1
:10C7C000029000916A4601910148FFF7E9FF0000DD
:10C7D00001400000094B9B68002B07D0002A07D0BE
:10C7E000002805D00068037C002B03D00820704788
:10C7F00007207047417442610020704740280020A4
:10C80000FFB59007002581B014460E46002832D1AE
:10C810001B4F002C31D000F0FFFF049878610320FB
:10C82000387033461821224600204B43BC60183430
:10C83000C10089180D704D708E704C601C19401C21
:10C840000328F5DBFD607D7001240E48BD702405D2
:10C85000046003211420FFF749FD0B4804600B4CD2
:10C860000198A06003211120FFF740FD6068386146
:10C87000002005B0F0BD0720FBE7BD60FBE700002E
:10C880004028002080E200E000E100E000150140C7
:10C89000FEB50D461B4917468968044600292AD073
:10C8A000002C28D0052D01D20720FEBD606900288C
:10C8B00021D0607C012820D0002601F0EDF9C000D5
:10C8C0001049019089684018694601F00FFA002864
:10C8D00015D0012101700C49446049680830E2C05C
:10C8E000084901988968411868460078487001F045
:10C8F000ABF80020FEBD0820FEBD2E46DDE704207B
:10C90000FEBD00004028002000150140F8B5134D81
:10C910000446A96800291CD0002C1AD060690028A0
:10C9200017D00026267401F0B7F9C700A868694639
:10C93000381801F0DBF900280DD0022101704460A5
:10C94000A868391868460078487001F07DF83046CC
:10C95000F8BD0820F8BD0420F8BD000040280020E4
:10C96000F0B50C4693B01F216A46118007260027B8
:10C970009180002809D0C17849070DD502A9FFF799
:10C980006BFD002809D102AD01E000251780002CC5
:10C990000ED0E078002802D0304613B0F0BD01AAD6
:10C9A0000AA92046FFF758FD0028F6D10AAA02E09E
:10C9B00068460022878068468088C3B2684600883F
:10C9C000C1B2284672DFE8E77CB5054608880C4608
:10C9D0000930904201D90C207CBD684671DF0028E7
:10C9E000FAD121880820685420881B21401C80B27D
:10C9F00020802954208800A9401C80B22080401942
:10CA000006220131FFF7B8FB20886946801D80B2FD
:10CA100020800978002900D0012129542088401C59
:10CA2000208000207CBD0000F8B507461A48006849
:10CA3000B84213D11848194D0C38EE1E002921D0E8
:10CA40002A46527801290AD0022907D11446002C1F
:10CA500004D07169002901D020468847F8BD2C78A0
:10CA6000002A0AD0B1680A2251430C4A8068921EFB
:10CA7000FFF70EFF002800D177700848A978401E04
:10CA80000170E4E78068FFF741FF0448AC78401E7E
:10CA90000078A042DBD0F8BD2CDE01001328002076
:10CAA00003460020002B0BD10A4B012A02D1012999
:10CAB00008D0002200290AD0012904D0022904D07C
:10CAC000072070470D221A7070475A7070479A708D
:10CAD000704700001328002010B5054A0146127B5C
:10CAE0000020D20702D0084600F054F810BD000024
:10CAF0001028002070B50E461F4905468E60CD6097
:10CB000000204A61A9071DD5002405E00122114635
:10CB10002046FFF7C5FF641C21460143F6D00028DC
:10CB200010D1720801211548FFF700FE002809D135
:10CB3000FFF7EAFD002805D11048114A0021083806
:10CB4000FFF748FEE90705D00F490E4A8A60002327
:10CB5000CB608A6100280DD108480C4A00211038AA
:10CB6000FFF738FE002805D10448094A01210C3896
:10CB7000FFF730FE70BD00001028002030DE0100FD
:10CB80006DCD01004F0C000F0005005021D10100B8
:10CB9000F1C60100FEB5704D704A2B6902939A43AD
:10CBA000AB6800939C0006461B19002001930121ED
:10CBB00007466B4C3300FFF733FC180D1515334453
:10CBC0005264797C847C84CC9090909090B8BEC064
:10CBD000C6CCCC146149029A491C9143A160E7601C
:10CBE0002F70FEBDA260E76060685C4A521C504036
:10CBF000C2075C4806D0A160E760022E08D07D2005
:10CC0000400105E0E160A760022E01D0FF209130D5
:10CC10002E706421FFF79AFA00994143002240E008
:10CC2000A260E76060684D4A521C5040C00704D0C3
:10CC3000A160E76019204001EAE7E160A760C82031
:10CC4000E6E7A260E7606068444A521C5040C007B3
:10CC500002D0A160E760D2E7E160A760D6E7A260FA
:10CC6000E76060683D4A521C5040C00702D0A16096
:10CC7000E76001E0E160A7602E70009841000022AB
:10CC80000FE0A260E7606068344A521C5040C00761
:10CC900002D0A160E76001E0E160A7602E7000991A
:10CCA000002231480068FFF7F3FDFEBDA260E76097
:10CCB00010E0606802210A468243A2600840E060FA
:10CCC000EDE7606802210A468243A2600840E06006
:10CCD0000199D4E7E160A7602BE023484068FFF7A3
:10CCE00015FE11218A1B01D0002807D01B4A296993
:10CCF000521C1140A160E7602F61FEBD0421296133
:10CD0000012A0BD9C82050436421FFF71FFAA968F4
:10CD10000022414314484068FFF7BAFD0F4A2969D1
:10CD2000521C1140E160A760FEBD0C49491CA16086
:10CD3000E7602E70FEBD094AB8E70849491EA160A8
:10CD4000E7600221C6E70549891EA160E76003216B
:10CD5000C0E70249491CBDE7102800204E0C000F17
:10CD6000000500500807000020DE010010B5007823
:10CD70000221FFF759FE10BD0022D243830004496F
:10CD80000428CA5002D308182030027770470000E8
:10CD9000FC2A0020F0B50025ED43002A02D0002334
:10CDA000042601E0042308260B4C04E09F00E75909
:10CDB0007F1C04D05B1CB342F8D32846F0BD261874
:10CDC0005DB2203635709E00A151002AF5D1E118E0
:10CDD00020310877F1E70000FC2A002002490918F9
:10CDE0002020085670470000FC2A0020F8B5234890
:10CDF000C16800293ED00E6821494C680769C07897
:10CE0000E11B0D022D0AED1C002814D101201D4A42
:10CE1000000450601B4A403A50601B4940000860C3
:10CE20001A4908601A49012008602F20FFF762F9AB
:10CE300012490120C870B54200D23546E8190002F7
:10CE40000F4B000A403318600D4A5168001B091B44
:10CE50000902090A0002000AC91C814209D9506866
:10CE600018602F20FFF746F9012007494004803958
:10CE70000860F8BD00F0D0FCF8BD0000402800209C
:10CE8000001501404013014080E200E000E100E0B5
:10CE900000100140F8B50646108814468446801DEF
:10CEA0000D46984201D90C20F8BD32880720062A89
:10CEB000FAD31927FF01184BBA4201D99A42F3D18C
:10CEC00071880629F0D3B94201D99942ECD19A422E
:10CED00003D0994201D08A42E6D805216046295400
:10CEE00020881221401C80B2208029542088401CB8
:10CEF00080B220804119308800F0C8FE2188401897
:10CF000080B220804119708800F0C0FE218840184E
:10CF100020800020F8BD0000FFFF0000F8B50026CB
:10CF20000124154D23E06968F00047183878214640
:10CF30002A698140114218D08A432A6100F092FB8D
:10CF40003A782146EB689140194003469340994254
:10CF50000BD17978012901D0012100E000217B6803
:10CF60004140002B01D010469847761CF6B2287835
:10CF70008642D8D3F8BD00002C28002010B50E49F9
:10CF800000234A788C78A24212D0521CD2B24A7046
:10CF9000022A00D14B704A78074B920018339A58F6
:10CFA0000260086910180002000A0861012010BD23
:10CFB0000360002010BD000040280020F8B507469F
:10CFC000104E0125BD403068FFF7A0FC00280DD1B0
:10CFD0000D4C2069284207D1384600F043FB002859
:10CFE000E06804D0284303E0A8432061F8BDA843CB
:10CFF000E0602069002228432061A1683068FFF7C3
:10D0000047FCF8BD38DE01002C280020F8B51C4C88
:10D010002078002833D02069002807D00026E06857
:10D02000002805D00025002E04D011E00126F6E7E7
:10D030000125F8E7684652DF052804D0002804D00F
:10D04000FFF7BCFB04E0012602E021690098884755
:10D05000002D10D1608869460880A06861DF05282E
:10D0600004D0002804D0FFF7A9FB04E0012502E06A
:10D07000E168A0688847002EDCD0002DD3D0F8BD31
:10D08000602800201048018CC9B2012917D1818C79
:10D09000090714D1018D09060A0F03D1828D1206EA
:10D0A000120F0ED0090F012903D1828D1206120F23
:10D0B00007D0032903D1808D0006000F01D0002086
:10D0C0007047012070470000C00F00F030B5158890
:10D0D000EC1C9C4201D90C2030BD02244C55138815
:10D0E0001C255B1C9BB21380CD5413885B1C9BB228
:10D0F0001380012807D0022807D0032807D004286E
:10D1000007D0072030BD002004E0012002E0CC540D
:10D1100001E00320C8541088401C1080002030BD5E
:10D1200010B50448017BC90702D00078FFF732FD33
:10D1300010BD000010280020F8B52C49C8680A6905
:10D140000C780F7989688646944600913EE00099F4
:10D15000E20055182A7836E0182353436968521CB8
:10D16000C918AB78D2B2934200D100220B78022BBF
:10D1700002D0032B27D123E04E680346014603E08B
:10D18000B14204D00B46C96900291CD0F8E7002938
:10D1900019D08B4208D1C069002805D1144F01264F
:10D1A000BE600026B44601270E68C969D96100290E
:10D1B00009D00B689B190B6005E00174C06900E0A1
:10D1C00000210028F9D169789142C5D12146641E19
:10D1D000E4B20029BBD1054962460A61C8600F71FB
:10D1E000704501D00120F8BD0020F8BD4028002086
:10D1F00000100140F8B5044631480026C16800918E
:10D2000007784EE02E48F90080680D1843E0002CA6
:10D2100002D02046E4691FE02878182141436A685B
:10D22000401CC0B251182870AA78904200D12E70CC
:10D230000A784868012A30D1027C002A2DD18A68F8
:10D240004260CA6882600A69C260496981611C499A
:10D250000979002900D04660194943680A699C464B
:10D26000991A0902174B090A994202D28268891851
:10D2700007E06146511A09028268090A8A4202D906
:10D28000511A016000E00660466001218660017469
:10D29000C66100F0E1FB002CB9D12878697888429A
:10D2A000BAD138467F1EFFB20028ABD10448C1680E
:10D2B0000098814201D00120F8BD0020F8BD000097
:10D2C00040280020FFFF7F00002386B02C4A052164
:10D2D0001846FFF795FA002801D0FFF76FFA0022F1
:10D2E00028490120FFF706FC002801D0FFF766FA65
:10D2F0002349002348224839112000F04BFB002825
:10D3000001D0FFF75BFA00216A46084600F02AFBCD
:10D31000002801D0FFF752FA1B4800F0C9FA002894
:10D3200001D0FFF74BFA684600F012FB002801D04D
:10D33000FFF744FAFFF79CF900200121134A144D2E
:10D34000044603230E468640164202D08600761914
:10D350003360401C2028F5D30E48C26084600E481C
:10D3600073DF002801D0FFF729FA0220FFF7B4FB92
:10D37000002801D0FFF722FA00F002FAFCE70000D3
:10D38000BC280020CD0C0000D81600204F0C000F48
:10D390000007005000050050842A002070B5144694
:10D3A00082880E4605462088111D4118921C99421C
:10D3B00001D8FE2A01D90C2070BD521C325420889D
:10D3C000FF21401C80B2208031542088401C80B254
:10D3D00020808119288800F059FC2188401880B2EB
:10D3E0002080AA88002A09D0A968002908D08019BD
:10D3F000FEF7C2FE2088A98840182080002070BD5A
:10D40000072070BDF8B50F4601781446054601297E
:10D4100002D16878002806D02088821C9A422DD834
:10D42000012902D006E00720F8BD69784118891C5F
:10D43000994223D8181A801E86B268460680218831
:10D44000B81C081869467DDF0028EDD1287802282D
:10D4500005D169460988B14201D809210AE00821AD
:10D46000012805D16878B04202D86A46108001E0F0
:10D470006846068068460088FE2801D90C20F8BD61
:10D480002288401CB8542088401C80B22080395427
:10D4900020886946401C2080098840182080002090
:10D4A000F8BD000031B5054C04E0401E0090204658
:10D4B000FEF710FE00980028F7D138BDE703000002
:10D4C0008207D30EFF229A408907090E10B59940B2
:10D4D00000280BDA03071B0F083B9C080C4BA40029
:10D4E000E318DC6994430C43DC6107E08408094BD2
:10D4F000A400E418236893430B432360C106C90EBC
:10D5000001208840044908600449086010BD0000FB
:10D5100000ED00E000E400E080E200E000E100E077
:10D52000F3B581B00F46019800F012F901240028EC
:10D530001E4E019817D0FFF751FC80192030007F54
:10D540008009032802D0012806D007E018480069A6
:10D5500001998C40204201D1022100E00321019871
:10D5600000F0CEF8FEBD00F0FFF80028FAD00198D8
:10D57000FFF734FC05468100C81D0E4AF9308918B2
:10D580000A6980B222430A610B49401800210160F8
:10D59000002FE7D00198FFF721FC800030580028C9
:10D5A000E0D00648AC404460FEBD0000FC2A0020EC
:10D5B000000500500065004000600040006300402E
:10D5C000FEB5044623480E46001920214156002787
:10D5D000C8171346401C01D0082738E0F2781946D6
:10D5E0002046FFF7D7FB0546401C2FD0B078002817
:10D5F00007D01948A1000918086802229043086062
:10D6000007E000217378204600910A46019100F05E
:10D6100065F8F078002810D01048AA00101831786A
:10D6200002690F4B1A400261E206D20C8907890B8E
:10D630000A4301690A43026109E006483278401949
:10D640002030017F92011143017700E00427384622
:10D65000FEBD0000FC2A00200007005000650040CD
:10D66000FFE0FCFF03490969C140C807C00F00D0B3
:10D67000012070470005005070B5124D2879002830
:10D6800001D0082070BD0F4900204039421E0B1800
:10D690002033401CC0B21A702028F8D30024204642
:10D6A000FFF76AFB641CE4B2082CF8D303210620C0
:10D6B000FFF706FF01200449C007486001202871D8
:10D6C000002070BD3C2B0020006300400248007920
:10D6D000002800D0012070473C2B002030B55200BC
:10D6E0000A439900039C0A432102049D0A4329042A
:10D6F0000A43024980004018026030BD0007005014
:10D70000820006481018026803231B049A43026033
:10D71000026809040A4302607047000000070050D5
:10D72000034940180068012800D00020704700001D
:10D73000006000404058002800D0012070470322BC
:10D74000120280184068084000D001207047000095
:10D750000449081820214156042901DB01207047A3
:10D7600000207047FC2A0020044908182021415657
:10D77000042901D20120704700207047FC2A0020B4
:10D78000F0B58BB048DF002801D0FFF717F82C2246
:10D790001E496846FEF7F0FC1E4D1D4FAF6000208D
:10D7A000E8606A6801240299204688400146904357
:10D7B000A8601140E9606A680099204688400146E7
:10D7C0009043A8601140E9606968039A2046904040
:10D7D00002468A43AA600840E86005266A68B100EC
:10D7E0006846415C2046884001469043A86011404D
:10D7F000E960FF202D30FFF755FE761C0B2EEDDB88
:10D80000AF600020E8600BB0F0BD0000F4DD010067
:10D810004F0C000F0005005070B501240B49600447
:10D8200008600B4940108860094940398860094DFB
:10D830006C602F20FEF75EFCAC60074D00242F20AB
:10D840002C61FEF757FCEC7070BD000080E100E039
:10D8500040130140001001404028002030B50A4824
:10D86000FF21C57D0022094C0931094B002D625072
:10D8700007D09969437EC268D154417E491C4176E4
:10D8800030BD986930BD0000442B002000200040CE
:10D89000002500401FB501236A461370107203482B
:10D8A000019106C8684690471FBD0000442B002028
:10D8B00008B502490020009108BD000000280020A2
:10D8C000FFB50746806A81B0144600283DD0002588
:10D8D00038462030009033E00C20B96A68430E18B7
:10D8E000B088801CFE2802D90C2005B0F0BD22882B
:10D8F0000299401C885420881622401C80B2208047
:10D9000002990A542088401C80B220800299411854
:10D91000308800F0BBF92188401880B22080B2889E
:10D92000002A0AD0B16800290FD0029BC018FEF768
:10D9300023FC2088B188401820806D1C0098EDB22F
:10D94000007BA842C8D80020CFE70720CDE7000021
:10D950001CB5034901910091694660DF1CBD0000C0
:10D960000028002070B50E460546144614211046C6
:10D97000FEF71BFC0120002120802161217326720B
:10D980006572002D00D0A072002070BD10B5FEF7AA
:10D9900007FF10BD70B5002901D08C0701D007200A
:10D9A00070BD064C0125A16062800549636010DFEF
:10D9B0000028F5D1257016202EDF70BD60280020CC
:10D9C0008DD90100FEB51F4C00252769E068029043
:10D9D0006846FFF7D3FA0190FFF7AEFB06460198C1
:10D9E000002822D000230098E16817E00E680A465C
:10D9F000864202D9301A086012E0801BF318002614
:10DA00001660D668D169B446002E07D0FE183602DB
:10DA1000360A566066469660D56115460029E5D1FE
:10DA20002846E160FFF7E6FB06E02846FFF7E2FB49
:10DA3000002801D1002E02D00298FFF7D7F900206C
:10DA40002071FEBD40280020012002490005086029
:10DA50007047000000E200E010B50E4BD9680029C5
:10DA600006D002680C68A24204D8A21A0A60C161FA
:10DA7000D86010BD0B4604E00B46C969121B002993
:10DA800004D00C689442F7D3A41A0C600260C16100
:10DA9000D86110BD40280020F8B51D4DEC68002C61
:10DAA00034D01C48002740682969401A0602360A0B
:10DAB0002068B04218D8361AC7192246107CE4698B
:10DAC00000280FD0002010746B69002B07D09169DB
:10DAD00050699847002805D0FEF770FE02E05169B2
:10DAE00090698847002CE3D16978A878814206D1F3
:10DAF000401CC0B2A870022801D10020A8700449BF
:10DB00000006800D18310F50FFF79EFFF8BD000092
:10DB10004028002000150140FF2107481D31002248
:10DB200042500648828A8168895C828A521C8282BD
:10DB30000348C1617047000000200040442B0020D2
:10DB4000002500401FB500216A461170107204487C
:10DB500082680192817506C8684690471FBD000023
:10DB6000442B0020F0B5454D012185B049022846DF
:10DB7000FFF7E5FD01270026414C002824D0FF21B6
:10DB800025312846FFF7D6FD00281DD0FF2025307F
:10DB90002E5081203B4980008860A07E002800D163
:10DBA0006F60022168460170374908680860039079
:10DBB000E17D68460172E0680190E675267606CC44
:10DBC0006846083C90472BE004212846FFF7B7FD44
:10DBD000002825D0FF2109312846FFF7ABFD00289A
:10DBE0001ED0FFF73BFEE07D617E884218D1207E8B
:10DBF000002808D0627EE168E0752069E060267642
:10DC0000667610460AE0A07E002800D16F60812071
:10DC10001C4980008860E675607EE168FFF73AFE87
:10DC2000FF211D312846FFF785FD00280DD0A18A70
:10DC3000A07D814202D2FFF76FFF06E0FF211D3178
:10DC40006E50002801D0FFF77DFFFF2145312846A7
:10DC5000FFF770FD00280ED0FF2045302E50A07E2B
:10DC6000002800D02F60E07D002804D0E675607E9B
:10DC7000E168FFF70FFE05B0F0BD00000020004096
:10DC8000442B002000230040802400400870000A3C
:10DC9000487002207047000012494868C005C00D56
:10DCA00019D0103840B2002807DA0207120F083ADC
:10DCB000920892005118C96904E081080A4A890053
:10DCC000891809688007C00EC1400806800F012826
:10DCD00003D0032803D002207047002070470120A2
:10DCE0007047000000ED00E000E400E04278837837
:10DCF000521CD2B2934200D100220378934201D148
:10DD0000002070470A704168407818225043081874
:10DD10007047FFB583B016460C9D0D9C1F4602222E
:10DD200000950194039800F00CF8002807D13B46B9
:10DD30001022314600950194039800F002F807B0D4
:10DD4000F0BDFFB583B0074600200C9C86462688B0
:10DD500005463AE07868A900421811886846818033
:10DD60005188C1800022694601A865DF002839D1A9
:10DD7000684601780598814226D17046002801D076
:10DD8000002200E002222088891842180D998A4258
:10DD900027D8714600290AD1401C80B22080069AFB
:10DDA000049911542088401C208001208646218837
:10DDB00006980A18694601A865DF002812D169464D
:10DDC00020880978401820806D1C3888A842C1DC62
:10DDD000704600280AD02088801B401E80B2FF2891
:10DDE00002D90C2007B0F0BD069988550020F9E74C
:10DDF000AAFE010000000000010000000200000077
:10DE000003000000060000000A0000000B000000F4
:10DE100018000000190000001A0000001B0000009C
:10DE20009C2A0020BC2A0020DC2A002009000000D7
:10DE30000900030029CA0100602B00200300000034
:10DE400060DE010000280020740000003AC40100D8
:10DE5000D4DE0100742800200C0B00004AC401002D
:10DE600010EE03676F6F2E676C2F326F454236726C
:10DE700000000000000000000000000000000000A2
:10DE800000000000000000000024F400000000007A
:10DE90000000000000000000000000000000000082
:10DEA0000000000000000000000000000000000072
:10DEB0000000000000000000000000000000000062
:10DEC0000000000000000000000000000000000052
:04DED000000000004E
:040000050001C0C175
:00000001FF
